:020000040800F2
:10000000D009002089010008DB350008D52400084C
:10001000D935000867060008793E00080000000096
:10002000000000000000000000000000813B00080C
:1000300021080008000000002D370008833B00085D
:10004000A3010008A3010008A3010008A301000800
:10005000A3010008A3010008A30100082B08000861
:10006000A30100083108000837080008A3010008B0
:1000700091060008A3010008A3010008A3010008DD
:10008000A3010008A3010008A3010008A3010008C0
:100090006D3E0008A3010008A3010008A3010008A9
:1000A000A3010008A3010008A3010008A3010008A0
:1000B000A3010008A3010008A3010008A301000890
:1000C000A3010008A3010008A3010008A301000880
:1000D000A3010008A3010008A3010008A301000870
:1000E00023080008A3010008A301000800F002F89B
:1000F00000F03AF80AA090E8000C82448344AAF188
:100100000107DA4501D100F02FF8AFF2090EBAE885
:100110000F0013F0010F18BFFB1A43F0010318473B
:100120005458000074580000103A24BF78C878C1B1
:10013000FAD8520724BF30C830C144BF04680C60ED
:10014000704700000023002400250026103A28BF35
:1001500078C1FBD8520728BF30C148BF0B60704739
:100160001FB51FBD10B510BD00F06CF81146FFF7AC
:10017000F7FF04F04DFD00F08AF803B4FFF7F2FF3B
:1001800003BC00F08DF8000009488047094800478B
:10019000FEE7FEE7FEE7FEE7FEE7FEE7FEE7FEE737
:1001A000FEE7FEE704480549054A064B7047000094
:1001B000E53B0008ED000008D0030020D009002036
:1001C000D0050020D00500204FF0000200B51346F6
:1001D00094469646203922BFA0E80C50A0E80C5067
:1001E000B1F12001BFF4F7AF090728BFA0E80C5018
:1001F00048BF0CC05DF804EB890028BF40F8042B11
:1002000008BF704748BF20F8022B11F0804F18BF7D
:1002100000F8012B704770477047704710B500F029
:1002200009F8006810BD10B5044600F003F804603A
:1002300010BD0000004870476C0300200048704764
:100240006C0300207546FFF7F9FFAE4605006946CE
:10025000534620F00700854618B020B5FFF7A2FFEF
:10026000BDE820404FF000064FF000074FF00008B7
:100270004FF0000B21F00701AC46ACE8C009ACE838
:10028000C009ACE8C009ACE8C0098D46704710B59C
:100290000446AFF300802046BDE81040FFF76DBF75
:1002A00001491820ABBEFEE72600020070474FF060
:1002B0007E510160002141608160C160704770B56E
:1002C00086B09E680A990DF10C0C32C902968CE832
:1002D00032000ACBCDE90013D2E90014936822461C
:1002E00002F01AFD06B070BD01220421014800F0A1
:1002F0009FBF00000008014000220421014800F0D7
:1003000097BF000000080140704700000122102143
:10031000014800F08DBF00000008014000221021BC
:10032000014800F085BF0000000801402DE9F041C0
:10033000044640780D46000221781E4E00B2084364
:10034000B6F900109046401A05F01CF8A6F108070F
:10035000396805F077F82860E078A178000200B2EB
:100360000843B6F90210401A05F00CF839680F4638
:1003700005F068F8686060792179000200B20843EE
:10038000B6F90410401A04F0FDFF394605F05AF89A
:10039000A860207AE179000440EA0120A1790843AD
:1003A00005F008F8044905F04DF8C8F80000BDE86C
:1003B000F08100006C00002000401C42704700F0FB
:1003C000FBBD70B54FF0E02300215C6900EBC0007D
:1003D0009A69C50098699042FCD002D2A2EB000253
:1003E00002E0A4EB0006324411440246A942F1D3D4
:1003F00070BD00002DE9F041044640780D46000232
:100400002178164E00B20843B6F90010401A04F0E5
:10041000B9FFA6F10E07796805F014F82860E078B6
:10042000A178000200B20843B6F90210401A04F0A5
:10043000A9FF79680F4605F005F8686060792179B1
:10044000000200B20843B6F90410401A04F09AFF03
:10045000394604F0F7FFA860BDE8F0817200002083
:1004600010B5FFF751FFFFF7A9FF03F0AFFF08B189
:10047000802402E003F016FF044604F075F910B181
:1004800044F0400010BD04F001F9204310BD00000D
:100490002DE9FC410746002016460D4600900190CC
:1004A000FFF72AFF922000F0ABF8062269461220DF
:1004B00000F088F8FFF718FF9DF801009DF8001084
:1004C000000200B2084304F05DFF3C4C216804F0D8
:1004D000B9FF28609DF803009DF80210000200B2E9
:1004E000084304F04FFF2168884604F0ABFF6860C2
:1004F0009DF805009DF80410000200B2084304F0C6
:1005000041FF414604F09EFFA860FFF707FF082265
:100510006946002000F056F8FFF7F8FE9DF800004D
:100520000F2827D19DF803009DF80210000200B2A9
:10053000084304F027FF616804F084FF38609DF8E9
:1005400005009DF80410000200B2084304F01AFFF1
:1005500061680C4604F076FF78609DF807009DF80E
:100560000610000200B2084304F00CFF214604F01C
:1005700069FFB860FFF7C0FEA22000F041F8022238
:100580006946222000F01EF8FFF7AEFE9DF800003D
:100590009DF80110C00040EA5110B0F5806F01DBFA
:1005A000A0F5006004F0EEFE6FF0020105F081F9A5
:1005B000034904F075FD3060BDE8FC816400002053
:1005C0000000B84170B514460D4640F0800000F0C0
:1005D00017F806E0552000F013F8641E05F8010B2B
:1005E000E4B2002CF6D170BD10B50C4640F080008E
:1005F00000F006F8552000F003F8207010BD000050
:1006000001B582B04FF47A700090012301AA02A9CB
:10061000024801F0A3FC9DF804000EBD400100203B
:1006200010B50C4601784078C90041EA5010B0F589
:10063000806F01DBA0F5006004F0A4FE6FF0020102
:1006400005F037F9024904F02BFD206010BD0000D1
:100650000000B84110B50C46FFF7D2FF2046BDE8B8
:100660001040FFF7CDBFFEE730B4084B1222002444
:10067000C3E9002408229C60C3E903421C750A46B2
:1006800030BC0123014900F0EDB80000D400002087
:100690002DE9F05FDFF84CB1DBF80080524F514C90
:1006A000504DFA6C4F4E0834DFF83891DFF834A122
:1006B000106830356115583609F11C094FF4005C9B
:1006C0004FF4003E0AF16C0AA04201D1022318E067
:1006D000484501D1202314E0A84201D10B4610E087
:1006E000404B4433984201D163460AE0B04201D105
:1006F000734606E0504502D14FF4001301E04FF07D
:10070000007318EA030F6BD0A04201D1022116E05A
:10071000484501D1202112E0A84210D0314944318E
:10072000884201D161460AE0B04201D1714606E03B
:10073000504502D14FF4001101E04FF00071CBF8A9
:1007400004101068016821F001010160B86C0068B4
:10075000016821F001010160244C6078244D80077C
:100760000CD5607820F002006070607840F00400E2
:10077000607001221021284600F05AFDA078800701
:100780000CD5A07820F00200A070A07840F0040002
:10079000A07001220421284600F04AFDE07880077D
:1007A0000CD5E07820F00200E070E07840F0040022
:1007B000E07001220421284600F03AFD04F0B6F86A
:1007C000607840070CD5607820F004006070607895
:1007D00040F0080060700748016841F010010160B6
:1007E000BDE8F09F00000240400100201000002002
:1007F000000801401004014006490A6842F0807276
:100800000A6005490A6842F001020A60034908606B
:1008100070470000FCED00E0001000E0A8000020A0
:1008200070474FF4805000F007BC022000F004BC79
:10083000082000F001BC102000F0FEBB72B6FEE7FD
:1008400090F82020012A07D0022A05D0416A41F4FD
:100850008021416201207047006842690A43426179
:1008600000207047F0B590F820500468A468012D6E
:1008700005D0022D03D0416A41F480215DE014F0DF
:10088000406F01D1E50055D5C4F30164022C03D9B2
:10089000416A41F4000150E00125A5401D608D68CA
:1008A0004FF4C0739DB1CE6835434E6845EAC60526
:1008B000066803EB0417F5514FF4C275076805EBA2
:1008C00004150E697E51097D012905D009E00E88C5
:1008D000CD6845EA4655EBE701684E5946F4807607
:1008E0004E511179D579567941EA056195792D04F2
:1008F00045EA062529434FF4C676056806EB04163B
:10090000A9511178D57841EA0561957852782D047E
:1009100045EA022211434FF4C475026805EB041541
:100920005151006803EB0411425842F00102425059
:100930000020F0BD416A41F4001141620120F0BD88
:1009400010B590F820300268012B07D0022B05D09B
:10095000416A41F480214162012010BDD2F80002B9
:1009600040F00100C2F80002087D00F01F030120E2
:100970009840D2F81C328343C2F81C32CB69B3B919
:10098000D2F80C328343C2F80C328C894B6864F382
:100990001F434C6902EBC404C4F840320C890B6855
:1009A00064F31F434C6902EBC404C4F84432CB69BE
:1009B000012B16D1D2F80C320343C2F80C320C884A
:1009C0004B6864F31F434C6902EBC404C4F8403223
:1009D0000C89CB6864F31F434C6902EBC404C4F870
:1009E00044328B69002BD2F804320FD053EA000353
:1009F000C2F804320B69002BD2F8143208D003433A
:100A0000C2F81432096A012904D008E08343EFE7F1
:100A10008343F5E7D2F81C120143C2F81C12D2F846
:100A2000000220F00100C2F80002002010BD704753
:100A300030B590F82040012C05D0022C03D0416A3B
:100A400041F480215DE00468002955D02469A407A1
:100A500054D04FF4D874056804EB01142D5915F0E7
:100A60000405956005682D594ED0ED085560056860
:100A70002C5904F00204D4604FF4DA74056804EBD6
:100A800001142D5905F00F05156105682D59C5F3A1
:100A90000725956105682C59240C54614FF4DC72CC
:100AA000046802EB0112A4581C700468A458240ABC
:100AB0005C700468A458240C9C700468A258120E40
:100AC000DA704FF4DE72046802EB0112A4581C7154
:100AD0000468A458240A5C710468A458240C9C710E
:100AE0000468A258120EDA71006881B1016941F000
:100AF00020010161002030BDE468A8E7416A41F4AB
:100B000000114162012030BD6D0D1560AFE7C16875
:100B100041F02001C160EDE72DE9F05F0546006876
:100B200000244669D0F804908768D0F80CB0D0F85B
:100B300010A0D0F81880F10748D0F90714D001218F
:100B40008160B80703D5284600F001FA0CE0780769
:100B500002D54FF4006407E0380702D54FF4805403
:100B600002E0284600F0F2F9F80516D529684FF49E
:100B700080708860B80503D5284600F0EAF90CE0DB
:100B8000780502D544F4005407E0380502D544F452
:100B9000804402E0284600F0DBF9F80316D5296806
:100BA0004FF480308860B80303D5284600F0D3F9AD
:100BB0000CE0780302D544F4004407E0380302D582
:100BC00044F4803402E0284600F0C4F9300707D529
:100BD0005FEACB6004D52968102044F40074C86033
:100BE00070074FF0080707D55FEA0B7004D5286837
:100BF000C760284600F05AF9B00706D52868C068D3
:100C0000800702D0284600F053F9700607D55FEA46
:100C1000CA6004D52968102044F480640861B006D5
:100C200007D55FEA0A7004D528680761284600F0F6
:100C30005DF9F00606D528680069800702D02846CD
:100C400000F055F9B00308D55FEAC96005D52968F9
:100C500010204860284600F04BF9F00307D55FEA02
:100C6000097004D528684760284600F075F93004FB
:100C700046D55FEA497040D5F00504D55FEAC870F3
:100C800001D044F00104B00504D55FEA887001D5B5
:100C900044F00204700504D55FEA487001D544F0C1
:100CA0000404300529D518F0700F26D008F0700024
:100CB000402815D006DC102809D020280AD030287A
:100CC00016D10AE050280ED0602811D10EE044F071
:100CD00008040DE044F010040AE044F0200407E0AA
:100CE00044F0400404E044F0800401E044F48074E3
:100CF0002868816921F070018161296804204860B9
:100D0000002C05D0686A204368622846FFF78FFEF2
:100D1000BDE8F09F70B5040003D094F8200010B136
:100D200004E0012070BD204600F082F820680168D0
:100D300041F00101016000F081FA0546052604E05A
:100D400000F07CFA401B0A2811D820684068C007D0
:100D5000F6D02068016821F00201016000F06EFA0F
:100D600005460BE000F06AFA401B0A2806D9606AC3
:100D700040F40030606284F82060D2E72068406868
:100D80008007EFD4207E0128206801683DD021F043
:100D900080010160607E01282068016838D021F060
:100DA00040010160A07E01282068016833D021F055
:100DB00020010160E07E0128206801682ED041F00A
:100DC00010010160207F01282068016829D021F0EE
:100DD00008010160607F01282068016824D021F0AB
:100DE00004010160D4E902010843D4E9041211436B
:100DF00008436168491E08432168C8610020606299
:100E0000012084F82000002070BD41F08001C0E77F
:100E100041F04001C5E741F02001CAE721F010018F
:100E2000CFE741F00801D4E741F00401D9E7000021
:100E300010B586B0002100910191029103910068E4
:100E4000174988422AD11748C16941F00071C16130
:100E5000C16901F000710491816941F0040181616F
:100E60008069114C00F0040004904FF40060009081
:100E70006946204600F0ECF8A01400900220019092
:100E8000032003906946204600F0E2F80022114654
:100E9000142000F0F3FC142000F0E2FC06B010BDBA
:100EA000006400400010024000080140704700004C
:100EB00010B50B4A0168914210D10A4B0A4A002131
:100EC000FFF7B6FD08480068012807D105480078FB
:100ED000DE2803D1034901202C39887110BD0000A0
:100EE000006400403C000020500300207047704721
:100EF0007047000070B5044690F82000012804D027
:100F0000606A40F40020606218E0022084F820004B
:100F10002068016821F00101016000F08FF90546A9
:100F20000EE000BF00F08AF9401B0A2808D9606A69
:100F300040F400306062052084F82000012070BD7C
:100F400020684068C007EDD1606270BD704770478F
:100F500070477047704770477047000030B528B33E
:100F600008C8134914221944B1FBF2F18900C16386
:100F700010498163022141771A6843F6F0718A4370
:100F8000D0E900142143D0E902452C4321430469F0
:100F9000214344692143846921431143196000219D
:100FA0004163012242770177084630BD012030BD00
:100FB000F8FFFDBF0000024070B5044600F03EF9A6
:100FC0000546601C02D004480078044400F036F95D
:100FD000401BA042FAD370BD000000201449022833
:100FE0000CD0082813D0B0F5805F19D0102804D198
:100FF0000878012801D0012008707047887840F0F7
:1010000001008870C87840F00100C87003E048789B
:1010100040F00100487048790028EED003F086BC0B
:10102000087940F001000871024803F0B5BD0000E6
:1010300010000020FC020020044910B50A6802429A
:1010400002D00860FFF7CAFF10BD00001404014081
:101050002DE9F84FDFF8B891002409F1040A0AF1EC
:10106000040B23460F270BF1040EC9E00125A54010
:101070002A40AA427DD1674ED1F804C0ACEB0608E5
:10108000B44532D014DCBCF1030F3AD009DCBCF11A
:10109000000F2AD0BCF1010F1CD0BCF1020F31D1DE
:1010A0001DE0BCF1110F17D0BCF1120F2AD119E0CD
:1010B000B8F5881F19D006DCB8F5803F15D0B8F513
:1010C000801F1FD111E0B8F5001F0ED0B8F5041F26
:1010D00018D10AE0CB6815E0CB681B1D12E0CB6885
:1010E00008330FE0CB680C330CE08B682BB1012B7D
:1010F0004FF0080303D0456104E0042302E00561DA
:1011000000E00023FF2A01D8064601E000F10406B2
:101110004FEA840501D9A5F12005D6F8008007FA29
:1011200005FC28EA0C0803FA05F548EA0508C6F8A4
:1011300000804D68ED0062D5374DAE6946F001067E
:10114000AE61AD6924F0030605F001050095334D4D
:1011500006EB050CDCF80850A607360F07FA06F870
:1011600025EA0805DFF8B880404503D14FF00008B4
:1011700017E044E0DFF8AC80404502D14FF00108B1
:101180000FE0DFF8A480404502D14FF0020808E0EC
:10119000DFF89880404502D14FF0030801E04FF09E
:1011A000040808FA06F848EA0508CCF808804D68F3
:1011B000D9F80060ED034D4601D5164300E0964393
:1011C0002E604D68DAF80060AD03554601D5164330
:1011D00000E096432E604D68DBF80060ED025D464E
:1011E00001D5164300E096432E604D68DEF800609E
:1011F000AD02754601D5164300E096432E60641C8F
:101200000D682A46E5407FF431AFBDE8F88F000055
:1012100000040140000011100010024000000140D5
:1012200000080140000C0140001001400014014082
:101230000AB1016170470904FBE7000001488068BA
:10124000704700000000002070B5040025D094F81D
:101250003D00002520B984F83C50204600F078FA83
:10126000242084F83D002068016821F0010101601C
:101270002068016841F4004101602068016821F4A0
:101280000041016000F0C2FB4D4A6168914201D803
:101290004C4900E04C49884201D2012070BD4B49C5
:1012A0002368B0FBF1F15E6826F03F060E435E60F6
:1012B0006368934206D94FF4967359434FF47A7397
:1012C000B1FBF3F12368491C1E6A26F03F06314347
:1012D00019626168914210D84900401EB0FBF1F2DA
:1012E000521CC2F30B02042A01D2042022E0B0FBFC
:1012F000F1F0401CC0F30B001CE0A268F2B301EB5C
:10130000C10303EB0116431EB3FBF6F35B1C43F46E
:1013100080431B0549D092B301EBC10202EB0111DE
:10132000401EB0FBF1F0401CC0F30B0040F48040C5
:1013300040F400402168CA694CF6FF739A43104399
:10134000C861D4E9071001432068026822F0C00296
:1013500011430160D4E9030101432068826848F227
:10136000FF339A4311438160D4E9050108432168A2
:10137000CA6822F0FF021043C86001E00EE016E0E8
:101380002068016841F0010101602564202084F893
:101390003D00256384F83E50002070BD01EB4106FE
:1013A000431EB3FBF6F35B1CB3E70120C2E701EB7E
:1013B0004101401EB0FBF1F0401CC0F30B00B7E749
:1013C000A086010080841E0000093D0040420F00FD
:1013D0002DE9FF4F83B00025DDE910799A46934649
:1013E0000446DDF848800095FFF728FF064694F88C
:1013F0003D0020287CD119230122854920460096F2
:1014000001F078F90028F5D194F83C0001286FD05C
:10141000012084F83C0020680168C90703D10168F5
:1014200041F0010101602068016821F40061016060
:10143000222084F83D00402084F83E002564676245
:10144000A4F82A90608D20857248E062CDE900867C
:1014500053465A462046049901F054F800287DD19D
:10146000208DDFF8B491202768B1012814D002281C
:10147000206801681ED041F48061016020684169E4
:1014800080690090B6E02068416981690091016837
:1014900041F400710160ADE02068016821F48061D1
:1014A000016072B62068416981690091016841F468
:1014B00000710AE041F40061016072B62068416980
:1014C00081690091016821F48061016062B691E058
:1014D000032868D801280CD0022843464FF00002A8
:1014E0004946204600960FD001F004F9B0BB10E049
:1014F0008BE032464146204601F07BF970BB206804
:101500000069616A08706CE001F0F4F830BB72B6F3
:1015100034E02068016821F48061016072B62068BF
:101520000069616A0870606A401C6062208D401E1C
:101530002085608D401E6085384846F2A8110068FD
:10154000B0FBF1F0C0EBC00000EB80000090401E4B
:10155000009008D020684069C04300E029E04007BF
:101560000CD50098F3E744F8305F6773A5732069E2
:1015700040F02000206162B625731AE020680168FF
:1015800041F40071016020680069616A0870606A56
:10159000401C6062218D491E2185618D491E618537
:1015A00062B621681BE032464146204601F021F92F
:1015B00018B1012007B0BDE8F08F20680069616AAA
:1015C0000870606A401C6062218D491E2185618D12
:1015D000491E618521684A69D24352070AD40969C4
:1015E0000170606A401C6062208D401E2085608D05
:1015F000401E6085208D00287FF46AAF84F83D701E
:1016000084F83E5084F83C50D4E70220D2E7000032
:10161000020010000000FFFF040001000C00002089
:101620002DE9FF4F83B09A46DDE9119793460446B2
:10163000DDF84080FFF702FE054694F83D002028C3
:101640007FD11923012240492046009501F052F82C
:10165000002876D194F83C00012872D0012084F84B
:101660003C0020680168C90703D1016841F001010D
:1016700001602068016821F400610160212084F884
:101680003D00402084F83E0000262664C4F82480F3
:10169000A4F82A90608D20852C48E062CDE9007581
:1016A00053465A462046049900F0AAFF70B930E02C
:1016B0002A463946204601F0CFF858B1206C04285C
:1016C00004D12068016841F400710160012007B075
:1016D000BDE8F08F606A216800780861606A401C8C
:1016E0006062218D491E89B22185628D521E6285FC
:1016F00022685369DB435B070BD469B10078106142
:10170000606A401C6062208D401E2085608D401EF6
:101710006085208D0028CBD12A463946204600F02E
:10172000C3FF0028CAD154F83D0B016841F4007191
:101730000160202004F81E09E67766770020C6E7DE
:10174000FFE70220C3E70000020010000000FFFFD7
:1017500010B586B0002100910191029103910068BB
:10176000104988421BD1104CA06940F00800A061CC
:10177000A069694600F0080004904FF440600090B2
:1017800012200190032003900848FFF761FCE069F4
:1017900040F48000E061E06900F48000049006B04D
:1017A00010BD00000058004000100240000C014035
:1017B000024881680278114481607047000000206F
:1017C000074810B5016841F010010160032000F0E6
:1017D00075F80F2000F006F800F024F8002010BD86
:1017E0000020024070B50D4D04464FF47A71287800
:1017F000B1FBF0F00A490968B1FBF0F000F09FFC82
:1018000048B9102C07D200222146501E00F036F8AD
:1018100000206C6070BD012070BD00000000002041
:101820000C0000200C4808B5816941F0010181617C
:10183000816901F001010091C16941F08051C161EC
:10184000C06900F0805000900448416821F0E061D8
:1018500041F00071416008BD0010024000000140ED
:10186000002809DB00F01F0201219140400980009F
:1018700000F1E020C0F8001170470000F0B40E4BFA
:101880001B680C46C3F30223C3F10705042D00D9DE
:101890000425191D072901D2002300E0DB1E0126C3
:1018A00006FA05F1491E214099409E40761E1640D9
:1018B0003143F0BC02F0F4BA0CED00E0064900F050
:1018C000070208684FF6FF03184040EA0220034A67
:1018D00010430860704700000CED00E00000FA05BE
:1018E0002DE9F0470F46050061D0434E306800F007
:1018F0000700B84209D2306820F007003843306052
:10190000306800F00700B84251D128683B4C81078D
:1019100012D5400703D5606840F4E0606060287825
:10192000000703D5606840F4605060606068A96893
:1019300020F0F000084360602878C00728D068686D
:10194000012810D02168022810D0890700292EDA3A
:10195000616821F0030101436160FFF76FFC80467D
:1019600041F288390DE021688903EFE78901EDE74D
:10197000FFF764FCA0EB0801494502D90320BDE84C
:10198000F0876068696800F00C00B0EB810FEFD160
:10199000306800F00700B8420BD9306820F007002B
:1019A00038433060306800F00700B84201D00120B1
:1019B000E5E72878400705D56068E96820F4E0602D
:1019C000084360602878000706D56068296920F41C
:1019D000605040EAC100606000F038F86168084A71
:1019E000C1F30311515CC84006490860064800680D
:1019F000FFF7F8FE0020C2E700200240001002407E
:101A00002E5900080C00002004000020044805495D
:101A100000684968044AC1F30221515CC84070471C
:101A20000C000020001002403E59000804480549FF
:101A300000684968044AC1F3C221515CC84070473C
:101A40000C000020001002403E59000812A185B091
:101A50000FC98DE80F0014A0144A00680490516863
:101A6000134801F00C03042B10D0082B0ED1C1F346
:101A70008343C9031DF803000AD5516804AAC1F3C2
:101A80004041515C0A4A5043B0FBF1F005B0704749
:101A900008494843FAE7000002030405060708095D
:101AA0000A0B0C0D0E0F1010010200000010024076
:101AB00000127A0000093D002DE9F84F040070D0B3
:101AC0002078C04DC00749D06868C0F38100012864
:101AD00007D06868C0F38100022809D16868C00394
:101AE00006D52868800339D560680028E7D035E03E
:101AF0006068B0F5803F0BD010B1B0F5A02F11D0C9
:101B0000286820F480302860286820F4802002E0D3
:101B1000286840F480302860606890B1FFF78EFB41
:101B200006460AE0286840F480202860F0E700BFFD
:101B3000FFF784FB801B642873D828688003F7D5DF
:101B40000CE0FFF77BFB064605E000BFFFF776FBE6
:101B5000801B6428F0D828688003F7D420789A4E38
:101B600080074FF001094FF0000839D5686810F080
:101B70000C0F07D06868C0F38100022809D168689B
:101B8000C00306D42868800714D52069012808D12D
:101B900010E02069B0B1C6F80090FFF74FFB074690
:101BA00005E00AE1FFF74AFBC01B0228C4D82868F9
:101BB0008007F7D52868616920F0F80040EAC10085
:101BC00028600DE0C6F80080FFF738FB074604E008
:101BD000FFF734FBC01B022823D828688007F7D4FE
:101BE000207800072CD57948A169D9B1C0F80090B8
:101BF000FFF724FB074604E0FFF720FBC01B022889
:101C00000FD8686A8007F7D571484FF4FA51006819
:101C1000B0FBF1F0009000BF0098411E0091FAD295
:101C20000EE080E0C0F80080FFF708FB074604E004
:101C3000FFF704FBC01B022875D8686A8007F7D439
:101C40002078400760D5E8690027C00008D4E8691B
:101C500040F08050E861E869012700F08050009072
:101C60005C480168C90513D40168834641F480715A
:101C70000160FFF7E3FA824606E000BFFFF7DEFAF5
:101C8000A0EB0A0064284ED8DBF80000C005F5D5AB
:101C9000E06801280AD008B1052813D0286A20F08E
:101CA00001002862286A20F0040002E0286A40F05F
:101CB00001002862E06841F2883B98B1FFF7BEFA64
:101CC00082460BE0286A40F004002862EEE700BF7D
:101CD000FFF7B4FAA0EB0A0159455AD8286A8007E1
:101CE000F6D50CE0FFF7AAFA824605E0FFF7A6FA60
:101CF000A0EB0A0159454CD8286A8007F6D41FB1D9
:101D0000E86920F08050E861E06988B36968C1F350
:101D10008101022944D00228C6F8608004D0FFF770
:101D20008DFA044638E034E0FFF788FA074604E00D
:101D3000FFF784FAC01B02282BD828688001F7D44B
:101D4000206AB0F5803F05D16868A16820F40030B2
:101D500008436860D4E908010843696821F47411F4
:101D600008436860C6F86090FFF768FA044606E02A
:101D700025E000BFFFF762FA001B022809D8286897
:101D80008001F7D51BE000BFFFF758FA001B0228BF
:101D900002D90320BDE8F88F28688001F4D40EE052
:101DA0000128F7D06868226A00F48031914204D19A
:101DB000616A00F47010884201D00120EAE7002037
:101DC000E8E7000000100240000042428004424266
:101DD0000C0000200070004070B5040009D0606A5B
:101DE000002540B125616561A56294F8510040B1BC
:101DF0000CE0012070BD6068B0F5827FF4D0E56131
:101E0000F2E784F85050204600F040F8022084F8B1
:101E100051002068016821F040010160A0882189FB
:101E200000F4827001F404410843A18901F40061C7
:101E30000843217C01F002010843217D01F00101EA
:101E40000843218B01F400710843217F01F0380120
:101E5000084394F8201001F080010843218D01F41B
:101E60000051084321680860A069042101EA10407C
:101E7000216848602068C16921F40061C16165651D
:101E8000012084F85100002070BD0000F0B585B03D
:101E900000240646009401940294039400682A49A1
:101EA00088424ED12948816941F48051816181691C
:101EB00001F480510491816941F0040181618069DC
:101EC000234D00F004000490A02000900220019017
:101ED0000320039069462846FFF7BAF84020CDE971
:101EE0000004694628460294FFF7B2F81A4D1948D3
:101EF0008027C5E90004C5E902472C614FF4405032
:101F00006C61C5E906402846FFF728F808B1FEF7DE
:101F100095FCF5646E62104D0E484435143001C5D1
:101F2000102091C5400245F810496C61C5E9064092
:101F300009484430FFF712F808B1FEF77FFCB5649A
:101F40006E6205B0F0BD000000300140001002409C
:101F5000000801401C000240980100202DE9F84FC4
:101F6000044690F8500000270A9E1D4692468B4674
:101F70004FF0010901280ED0012084F85000FFF72E
:101F80005DF9804694F85100616801280CD0B1F5E4
:101F9000827F07D102E00220BDE8F88FA16809B96D
:101FA000042801D00227C2E0BBF1000F27D0BAF10C
:101FB000000F24D01DB394F85100042802D005204E
:101FC00084F8510000206065C4F838A0E587A58733
:101FD000C4F830B0E586A586206460642068016896
:101FE000490603D4016841F040010160E068B0F5A2
:101FF000006F606805D0E8B3012D46D07FE001276F
:1020000095E008B1012D39D1206B21680088C860A6
:10201000206B801C2063E08E401EE0862EE020684E
:10202000816889070FD5E18E69B1B9F1010F0AD135
:10203000216B0988C160206B801C2063E08E401EEC
:10204000E0864FF0000920688168C9070CD0E18F55
:1020500051B1C068A16B0880A06B801CA063E08FA9
:10206000401EE0874FF00109FFF7E8F8A0EB0800F9
:10207000B04200E009E001D3701C50D1E08E00288E
:10208000CDD1E08F0028CAD13FE0206B21680078D5
:102090000873206B401C2063E08E401EE0862EE01B
:1020A0002068816889070FD5E18E69B1B9F1010F08
:1020B0000AD1216B09780173206B401C2063E08EEC
:1020C000401EE0864FF0000920688168C9070CD0E7
:1020D000E18F51B1C068A16B0870A06B401CA06378
:1020E000E08F401EE0874FF00109FFF7A7F8A0EB53
:1020F0000800B04202D3701C01D010E07EB1E08E27
:102100000028CDD1E08F0028CAD142463146204672
:1021100001F0CAFC28B101272020606507E00327F1
:1021200005E0A06818B92068C168806800900120A7
:1021300084F85100002084F8500038462CE710B590
:10214000401EB0F1807F01D3012010BD4FF0E0248C
:1021500060610F21601701F0A3FE0020A06107203D
:102160002061002010BD000070B590F83C20012ACD
:1021700026D0012480F83C40022280F83D200368EC
:102180005A689D6822F070060A6832435A600D4B07
:1021900002689A4208D0B2F1804F05D00A4B9A42A9
:1021A00002D00A4B9A4204D1496825F080031943B2
:1021B000916080F83D40002180F83C10084670BDD9
:1021C000022070BD002C01400004004000080040C7
:1021D00000B585B000210091019102910391006842
:1021E0000B49884211D10B48816941F00801816196
:1021F0008069694600F008000490012000900220E8
:10220000019003900448FEF723FF05B000BD0000D5
:102210000004004000100240000C014070B504466C
:1022200090F83C000D4601280AD0012084F83C00BB
:1022300042B1042A18D0082A2AD00C2A4DD139E0FC
:10224000022070BD206801F013FD2068816941F013
:10225000080181612068816921F0040181612068A1
:1022600081692A69114311E0206801F029FD206885
:10227000816941F4006181612068816921F4806194
:102280008161206881692A6941EA0221816124E033
:10229000206801F041FD2068C16941F00801C16179
:1022A0002068C16921F00401C1612068C1692A69FF
:1022B000114311E0206801F05BFD2068C16941F421
:1022C0000061C1612068C16921F48061C161206839
:1022D000C1692A6941EA0221C161002084F83C00F9
:1022E00070BD10B5040003D094F83D0010B107E0B4
:1022F000012010BD002084F83C00204600F01EF8AC
:10230000022084F83D00211D206801F06DFC0120B1
:1023100084F8460084F83E0084F83F0084F84000CA
:1023200084F8410084F8420084F8430084F84400B3
:1023300084F8450084F83D00002010BD08B5006811
:102340000649884208D10648C16941F00201C161CD
:10235000C06900F00200009008BD000000040040C9
:102360000010024010B50446022249B104290ED0E3
:10237000082913D094F84100012816D0012010BD7F
:1023800094F83E000128F9D184F83E200FE094F83B
:102390003F000128F2D184F83F2008E094F8400083
:1023A0000128EBD184F8402001E084F8412001228B
:1023B000206801F04FFC0F492068884203D1426C2D
:1023C00042F4004242642068884208D0B0F1804F55
:1023D00005D00949884202D00849884204D1816861
:1023E00001F00701062903D0016841F001010160F5
:1023F000002010BD002C01400004004000080040F7
:1024000070B5040004D094F83D00002510B106E03A
:10241000012070BD84F83C50204600F023F82420B1
:1024200084F83D002068C16821F40051C160204655
:1024300001F0C0FC2068016921F49041016120682D
:10244000416921F02A0141612068C16841F40051CD
:10245000C1602564202084F83D0084F83E000020FF
:1024600070BD000030B585B0002400940194029442
:10247000039400681449884224D11448816941F4C6
:1024800080418161816901F480410491816941F059
:102490000401816180690E4D00F0040004904FF446
:1024A00000700090022001900320039069462846A6
:1024B000FEF7CEFD2815CDE90004694628460294B2
:1024C000FEF7C6FD05B030BD0038014000100240E7
:1024D00000080140FEE701684A69D24352050FD463
:1024E0006FF480624A61002140F8301F202242735D
:1024F0008173026942F00402026101730120704796
:10250000002070472DE9F84F0446006889460B9D6E
:1025100001689846174641F48061016020680168AF
:1025200041F48071016000954FF0011B0022594673
:1025300020460A9B00F0DEF84FF4007A40B1206894
:102540000068C00501D5C4F840A00320BDE8F88F9D
:10255000216809F0FE0008612B46284920460A9AA6
:1025600000F0FCF8F0BB20684169806900902A46C1
:1025700020460A9900F070F940B1206C04283AD145
:102580002068016841F40071016034E0FEB2B8F1E6
:10259000010F09D02168380A08612A4620460A99A5
:1025A00000F05AF90028E8D1206806612A46204642
:1025B0000A9900F051F90028DFD12068016841F440
:1025C0008071016000950022594620460A9B00F068
:1025D00091F80028B3D1216809F0FF0040F0010014
:1025E000086100E007E02B46044920460A9A00F003
:1025F000B5F80028AAD00120A8E7000002000100D9
:102600002DE9F843044600680D46DDE908970168A6
:102610009846164641F4807101604B4600224FF007
:1026200001112046009700F065F848B12068006865
:10263000C00502D54FF4007020640320BDE8F88384
:10264000216805F0FE0008613B464A4615492046D0
:1026500000F084F888B920684169806900903A46A2
:102660004946204600F0F8F848B1206C042804D10F
:102670002068016841F4007101600120DEE7F5B2D5
:10268000B8F1010F09D02168300A08613A4649467D
:10269000204600F0E1F80028E7D12068056100201D
:1026A000CCE700000200010070B516460D46044656
:1026B0000DE02046FFF70FFF08B1012070BD681C38
:1026C00005D0FEF7BBFD801BA84207D835B12068B6
:1026D0004069C0434007ECD4002070BD002044F89E
:1026E000300F20216173A073216941F02001216125
:1026F0002073E2E72DE9F0471E4690460D4604465A
:10270000C1F30747DDF8209008E0701C06D0FEF703
:1027100095FDA0EB0900B0420FD876B12068012FDB
:1027200018D0806925EA00000004000C14D00021B4
:102730004145EAD00020BDE8F087002044F8300F82
:1027400020216173A073216941F020012161207370
:102750000120F0E74069E5E70121E9E72DE9F047CD
:102760009A4691460E46044600254FF02008C1F3D4
:10277000074725E020684069C043400514D420681D
:10278000016841F40071016021686FF48060486164
:10279000256384F83D8084F83E50206C40F00400AE
:1027A000206484F83C501FE0B9F1FF3F08D0FEF7E9
:1027B00045FDA0EB0A0149450CD8B9F1000F09D03D
:1027C0002068012F13D0806926EA00000004000C65
:1027D0000BD0CFE744F8305F84F80D80A5732069F3
:1027E00040F02000206125730120BDE8F08740699A
:1027F000EAE72DE9F041002590460E4604462027E1
:1028000017E04069C043C0060CD454F8301B6FF089
:102810001000486144F810596777A577206A206254
:10282000257717E0FEF70AFDA0EB0800B04208D8B4
:102830003EB120684169C9434906E2D40020BDE8A1
:10284000F08144F8305F6773A573206940F0200081
:10285000206125730120F2E770B516460D46044647
:102860000DE02046FFF737FE08B1012070BD681C5F
:1028700005D0FEF7E3FC801BA84207D835B12068DD
:102880004069C0430006ECD4002070BD002044F82D
:10289000300F20216173A073216941F02001216173
:1028A0002073E2E738B508211C48FFF75BFD0720DD
:1028B00000E06420FEF780FBFDF7D2FD0028F8D190
:1028C00002E06420FEF778FB02F02AF90028F8D134
:1028D000134AA2F11004211D101DFDF7D9FD114866
:1028E0000090114B114A002104F1340000F002FF66
:1028F0000A4900200968C86304F12802211DA2F1D9
:102900005000FDF7D4FC0A490822A1F1080001F0AB
:1029100083F8074901202439487138BD200200207E
:10292000E4020020008009440000FA4448590008ED
:1029300034000020F8B5364C2078012867D135489E
:1029400045682561E068281A02F034FD324902F03A
:102950001BFCE56060616078304E000708D5607848
:1029600020F008006070314604F12500FDF742FDBB
:10297000A0782A4D4007A5F114050AD5A07820F0CB
:102980000400A07005F12002291DA2F12A00FDF724
:10299000CDFCE0784FF0000740071DD5E07820F02F
:1029A0000400E0701D491A48091F1A30FDF738FE6F
:1029B0001A481B4A2030296900F010FE17482030C1
:1029C000016A11F1FF4F00D30762006A02F0BAFCFE
:1029D000144980B20968C86310482B1D1430009058
:1029E000324650386169FDF76AFC0C4B243B1A1FD4
:1029F000111FA1F1100001F01DFFA079012805D1E0
:102A0000064829692C3802F021F9A7712770F8BD12
:102A100010000020001000E04054894CE802002023
:102A2000000034422002002070B51F488AB01D49C2
:102A3000016002260024C0E901644FF44021C0E98E
:102A40000341890041610476012545768576C47687
:102A500004774477FEF75EF908B1FDF7EFFE0594C1
:102A6000CDE906452020CDE9000408954FF4FF503C
:102A7000CDE90206049469460B48FDF761FF08B1F1
:102A8000FDF7DCFE0848FEF735FA08B1FDF7D6FE83
:102A900002210548FDF7D4FE002801D0FDF7CEFE47
:102AA0000AB070BD00640040AC0000200D4808B5BD
:102AB000416941F0010141614069002200F00100DB
:102AC000009005210C20FEF7D9FE0C20FEF7C8FE71
:102AD000002205210D20FEF7D1FEBDE808400D20A3
:102AE000FEF7BEBE001002402DE9F04186B0002086
:102AF00000900190029003903748816941F02001D5
:102B00008161816901F020010491816941F0040132
:102B10008161816901F004010491816941F008013A
:102B2000816180692D4F00F008000490012214217A
:102B30003846FEF77DFB0122DFF8A48056033146BC
:102B40004046FEF775FB274D0A20CDE9000501241C
:102B5000694602943846FEF77BFA1420CDE900045A
:102B60000320CDE9024069463846FEF771FA41F28A
:102B70001000CDE90005694602944046FEF768FA68
:102B8000CDE900640294694640460394FEF760FA7A
:102B9000002205210720FEF771FE0720FEF760FEE8
:102BA000002205210920FEF769FE0920FEF758FEE4
:102BB000002206210A20FEF761FE0A20FEF750FEE1
:102BC000002205212820FEF759FE2820FEF748FEA6
:102BD00006B0BDE8F081000000100240000801408E
:102BE000000C0140000021100D4810B50B49016098
:102BF0000C49416000214FF480428160C0E903121A
:102C000041618161C1610162FEF71EFB002803D0B2
:102C1000BDE81040FDF712BE10BD00000058004096
:102C2000EC000020801A0600104810B50E49016023
:102C30004FF482714160002102228160C0E90312D9
:102C400001224261520282611822C0E907214162D9
:102C500081620A21C162FFF7BFF8002803D0BDE8F6
:102C60001040FDF7EBBD10BD0030014040010020D9
:102C700010B58AB0002407941C2168460894FDF71B
:102C8000A3FA16481449C0E9001441F28731C0E99B
:102C90000241802104618161FFF723FB08B1FDF748
:102CA000CDFD079407A90D480894FFF75DFA08B118
:102CB000FDF7C4FD6020CDE90004029408226946B6
:102CC00006480494FFF7AAFA08B1FDF7B7FD0348D8
:102CD000FFF77EFA0AB010BD000400402002002079
:102CE0000C4810B50A4901604FF4E1314160002100
:102CF00081600C22C160C0E904128161C161FFF7EB
:102D00007FFB002803D0BDE81040FDF797BD10BD44
:102D100000380140680200202DE9FF4F91B00446C1
:102D2000DDE91F652198DDF88CB01E9F984691461D
:102D30008A4610F0FF4F06D1229810F0FF4F02D1C3
:102D40001BF0FF4F03D017F0FF4F0FD108E00097A3
:102D5000CDE90165204600F0A3FA15B0BDE8F08F7B
:102D600016F0FF4F02D115F0FF4F7DD029462846BF
:102D700002F068FB31460190084602F063FB3946D9
:102D80000290084602F05EFB029902F089F901996F
:102D900002F086F901F046FE01460090384602F046
:102DA00051FB1E903046009902F04CFB1F902846C4
:102DB000009902F047FB59462090084602F042FB7A
:102DC00022990646084602F03DFB21990546084631
:102DD00002F038FB294602F063F9314602F060F94F
:102DE00001F020FE05460146219802F02BFB2190C0
:102DF0002946229802F026FB22902946584602F0E6
:102E000021FB239027683946384602F01BFB0D90C2
:102E1000D4F804B03846594602F014FB0590A66871
:102E20003846314602F00EFB0490E56838462946E4
:102E300002F008FB59460990084602F003FB0F9088
:102E40003146584602F0FEFA08902946584602F0EC
:102E5000F9FA31460790084602F0F4FA069029463E
:102E6000304602F0EFFA00E065E12946039008469B
:102E700002F0E8FA02900499079802F011F90B9019
:102E8000239902F0DFFA0646DDE9080102F06AFC48
:102E90000C90229902F0D6FA05464FF07C50069924
:102EA00002F060FC029902F05DFC0E90219902F0A4
:102EB000C9FA294602F0F4F8314602F0F1F801218E
:102EC00002F0F7FC05460599039802F04BFC2399A4
:102ED00002F0B8FA07464FF07C500F9902F042FC1E
:102EE0000A90029902F03EFC229902F0ABFA0646E3
:102EF000DDE9080102F0D4F8219902F0A3FA314685
:102F000002F0CEF8394602F0CBF8012102F0D1FCF4
:102F1000014602F097FA06462946084602F092FA60
:102F2000314602F0BDF802F08FF801F0E5FE01F045
:102F30001FFF834606990A9802F014FC0890239913
:102F400002F080FA07460599039802F0A9F8099063
:102F5000229902F077FA06460499079802F002FCDB
:102F60000546219902F06EFA314602F099F8394689
:102F700002F096F8012102F09CFC064609980490A4
:102F800005954FF07C510D9802F0ECFB029902F090
:102F900087F806902846314602F054FA054659460D
:102FA0000E9802F04FFA294602F07AF8079031465F
:102FB000099802F047FA054659460C9802F042FA81
:102FC000294602F06DF805463146089802F03AFAB3
:102FD000064659460B9802F035FA314602F060F881
:102FE00007462946239802F02DFA064639462298CC
:102FF00002F028FA314602F0B5FB06460499209803
:1030000002F020FA834606991F9802F01BFA5946EF
:1030100002F0A8FB314602F043F883463946219876
:1030200002F010FA06460799239802F00BFA31468F
:1030300002F098FB064606991E9802F003FA07462E
:103040000599209802F0FEF9394602F08BFB3146D3
:1030500002F026F802900799229802F0F3F906464A
:103060002946219802F0EEF9314602F07BFB054635
:1030700005991F9802F0E6F9064604991E9802F099
:10308000E1F9314602F06EFB294602F009F8814D64
:1030900006466868B0F5000F31DB5946686802F0F3
:1030A000D1F97D4F394602F0CDF9A96801F0F8FF5A
:1030B000A8600299686802F0C5F9394602F0C2F9C1
:1030C000E96801F0EDFFE8603146686802F0BAF99E
:1030D000394602F0B7F9296901F0E2FF2861A968D1
:1030E000504601F0DDFFE9688246484601F0D8FF0E
:1030F00029698146404601F0D3FF804603E0002065
:10310000A860E86028615946286802F09BF951469A
:1031100001F0C6FF82460299286802F093F94946F9
:1031200001F0BEFF81463146286802F08BF9414626
:1031300001F0B6FF8046594D5046294602F082F90B
:1031400012902946484602F07DF9139029464046E0
:1031500002F078F91490D4E901502668D4F80CB044
:103160008146B2465846149902F06CF980464846AA
:10317000139902F067F9074685F00040129902F0B2
:1031800061F9394602F0EEFA414602F0EBFA3146B7
:1031900001F086FF206080465846139902F052F9EC
:1031A00007464846149902F04DF9064650461299D2
:1031B00002F048F9314601F073FF394602F0D2FAC5
:1031C000294601F06DFF606007465846129902F0EB
:1031D00039F907902846149902F034F9064650460A
:1031E000139902F02FF9314602F0BCFA079901F069
:1031F00057FF494601F054FFA06006464846129921
:1032000002F020F981462846139902F01BF9054681
:103210005046149902F016F9294601F041FF49463B
:1032200002F0A0FA594601F03BFF0146E06002F0CF
:1032300009F981463146084602F004F90546394647
:10324000084602F0FFF806464146084602F0FAF842
:10325000314601F025FF294601F022FF494601F0E1
:103260001FFF01F0DFFB05462946206802F0EAF85F
:1032700020602946606802F0E5F860602946A06891
:1032800002F0E0F8A0602946E06802F0DBF8E060B8
:1032900063E50000500000206F12833A6F12033A7A
:1032A0002DE9FF4F81B09A46DDE90E65DDF84080DB
:1032B0009346044616F0FF4F05D115F0FF4F02D19B
:1032C00018F0FF4F7ED04146404602F0BBF88146E1
:1032D0002946084602F0B6F807463146084602F08D
:1032E000B1F8394601F0DCFE494601F0D9FE01F0A3
:1032F00099FB07460146304602F0A4F80E90394685
:10330000284602F09FF80F903946404602F09AF89E
:103310001090D4F8088026684146304602F092F8B2
:10332000E568676881462946384602F08BF84946C9
:1033300002F018FA81462946404602F083F880469A
:103340003946304602F07EF8414601F0A9FE0746B4
:103350002946084602F076F805463146084602F04E
:1033600071F84FF07C5102F0FDF9294601F098FE0A
:1033700005463946109802F065F8064629460F982A
:1033800002F060F8314602F0EDF9009029460E98FF
:1033900002F058F805464946109802F053F82946BD
:1033A00002F0E0F9804649460F9802F04BF80546D6
:1033B00039460E9802F046F8294602F0D3F906463F
:1033C000824D00E051E06868B0F5000F31DB0099F4
:1033D000686802F037F87E4F394602F033F8A96882
:1033E00001F05EFEA8604146686802F02BF839469D
:1033F00002F028F8E96801F053FEE8603146686899
:1034000002F020F8394602F01DF8296901F048FE63
:103410002861A968029801F043FE0290E9685846C5
:1034200001F03EFE29698346504601F039FE82468E
:1034300003E00020A860E86028610099286802F095
:1034400001F8029901F02CFE02904146286801F033
:10345000F9FF594601F024FE83463146286801F001
:10346000F1FF514601F01CFE82465A4D0298294652
:1034700001F0E8FF02902946584601F0E3FF03906F
:103480002946504601F0DEFF0490D4E90150266839
:10349000D4F80CB08146B2465846049901F0D2FFE8
:1034A00080464846039901F0CDFF074685F000406D
:1034B000029901F0C7FF394602F054F9414602F083
:1034C00051F9314601F0ECFD2060804658460399E1
:1034D00001F0B8FF07464846049901F0B3FF0646DD
:1034E0005046029901F0AEFF314601F0D9FD394650
:1034F00002F038F9294601F0D3FD606007465846CE
:10350000029901F09FFF06462846049901F09AFFB0
:1035100000905046039901F095FF009902F022F9BE
:10352000314601F0BDFD494601F0BAFDA0600646F6
:103530004846029901F086FF81462846039901F02A
:1035400081FF05465046049901F07CFF294601F0B1
:10355000A7FD494602F006F9594601F0A1FD0146D2
:10356000E06001F06FFF81463146084601F06AFFD6
:1035700005463946084601F065FF064641460846BD
:1035800001F060FF314601F08BFD294601F088FD16
:10359000494601F085FD01F045FA054629462068B7
:1035A00001F050FF20602946606801F04BFF606029
:1035B0002946A06801F046FFA0602946E06801F0B6
:1035C00041FFE06005B0BDE8F08F00005000002032
:1035D0006F12833A6F12033AFEE7FEE72DE9F047D8
:1035E000040011D0206C60648146E06B2064C4E963
:1035F00006218046104602F0B5F80546E0632078C3
:1036000028B101283BD038E00020BDE8F0872946EA
:10361000606801F017FF60622946A06801F012FFA0
:10362000A16A01F03DFD0646A062606BA063206BBD
:1036300060634146284602F095F801462063E06841
:1036400001F000FFE0623046616901F0C7FF606988
:1036500008D380F00040A16A01F0C0FF03D2606986
:1036600080F00040A062D4E9090101F019FDE16A8F
:1036700031E0206980F000402062206AC5E74146C1
:10368000284602F06FF8616801F0DCFE07466062D0
:103690002946A06801F0D6FE0646A062606BA063D2
:1036A000206B60630121404602F003F9294601F0D6
:1036B000C6FF494601F0F4FC01462063E06801F0D2
:1036C000C1FE0546E0623146384601F0E9FC294674
:1036D00001F0E6FC216A01F0E3FC2062216901F0BF
:1036E0007DFF2069C8D380F00040216A01F076FF99
:1036F000C3D2BEE710B50028029C16D0002A14D011
:103700000170116841605168816000F10C0C916892
:103710008CE81A0000218163416301630162C16288
:103720008162416241640164C16310BD7047000061
:103730002DE9F74FB448914601680A6822F001026A
:103740000A60B2490A68136823F001031360026833
:103750001368DB07F7D103E0136823F0010313605C
:103760000A681368DB07F7D1DFF8A4A2A94AA94BBE
:10377000DAF84C80A74CA74DA64EDFF898B2D8F8DF
:103780000070143228333C34503564365F4502D122
:103790004FF0020C1AE0974202D14FF0200C15E0D6
:1037A0009F4202D14FF4007C10E0A74202D14FF4B7
:1037B000005C0BE0AF4202D14FF4003C06E0B742A0
:1037C00002D14FF4001C01E04FF0007CDFF844E22E
:1037D000AEF1080ECEF804C0D8F800705F4502D1F3
:1037E0004FF0040C1AE0974202D14FF0400C15E064
:1037F0009F4202D14FF4806C10E0A74202D14FF4F7
:10380000804C0BE0AF4202D14FF4802C06E0B7426F
:1038100002D14FF4800C01E04FF0806CF246CEF8FC
:1038200004C0D8F800705F4501D1082719E097421D
:1038300001D1802715E09F4202D14FF4006710E0CC
:10384000A74202D14FF400470BE0AF4202D14FF440
:10385000002706E0B74202D14FF4000701E04FF025
:103860000067D446CAF80470D8F800704FF4807E20
:103870004FF0807A5F4501D1012717E0974201D1CF
:10388000102713E09F4201D177460FE0A74202D1F3
:103890004FF480570AE0AF4202D14FF4803705E081
:1038A000B74202D14FF4801700E05746E346CCF808
:1038B0000470574FDFF85C81D7F848C0DCF800701F
:1038C000474501D1022719E0974201D1202715E091
:1038D0009F4202D14FF4007710E0A74202D14FF48B
:1038E00000570BE0AF4202D14FF4003706E0B74279
:1038F00002D14FF4001701E04FF00077CBF80470CD
:10390000DFF81081DCF80070474501D1042719E089
:10391000974201D1402715E09F4202D14FF48067C2
:1039200010E0A74202D14FF480470BE0AF4202D132
:103930004FF4802706E0B74202D14FF4800701E040
:103940004FF08067CBF80470DFF8C880DCF80070B7
:10395000474501D1082719E0974201D1802715E09A
:103960009F4202D14FF4006710E0A74202D14FF40A
:1039700000470BE0AF4202D14FF4002706E0B74208
:1039800002D14FF4000701E04FF00067D846CBF8B2
:103990000470DCF80070DFF87CC0674501D10122BB
:1039A00017E0974201D1102213E09F4201D17246E5
:1039B0000FE0A74202D14FF480520AE0AF4202D199
:1039C0004FF4803205E0B74202D14FF4801200E09C
:1039D0005246C8F804200368019ADA600B68009A1E
:1039E000DA600368C3F804900B68C3F804900068B9
:1039F000026842F0010202600868016841F00101BA
:103A00000160BDE8FE8F000098010020DC0100206D
:103A10004001002008000240F0B51E4B1C6865689C
:103A200045F0020565601C68656845F00105656044
:103A30001B681C6844F040041C60174B1C68256818
:103A400025F0010525601C682568ED07F7D1134DA9
:103A500020246C601C68124EA6601C68E160196826
:103A60004A6019680C6844F002040C600D490C6847
:103A7000276827F0010727600C682768FF07F7D140
:103A80004FF400746C600C68A6600968C860186820
:103A90004260F0BD4001002098010020000002407B
:103AA0000C300140DC01002038B50B460092044682
:103AB0000022802100F008F8002804D0606D40F05A
:103AC00020006065032038BD2DE9F8431E4691466D
:103AD00088460446089DFDF7B1FB401B351AFDF7EB
:103AE000ADFB074625480068C0F3CB30684338E09B
:103AF000701C37D0FDF7A2FBC01BA84203D215B142
:103B0000009860B32CE02068416821F0E00141603A
:103B10006068B0F5827F0BD1A068B0F5004F02D08D
:103B2000B0F5806F04D12068016821F04001016088
:103B3000A06AB0F5005F09D12068016821F4005146
:103B400001602068016841F400510160012084F89F
:103B50005100002084F850000320BDE8F8830025C0
:103B6000401E00902068816838EA010004D00021DE
:103B70004945BDD10020F0E70121F9E70C00002004
:103B80007047FDF715BE30B58FB028216846FCF7A9
:103B90001BFB14210AA8FCF717FB01210804CDE93F
:103BA00000100024029402250491CDE907504FF43F
:103BB000E01009906846FDF77FFF08B172B6FEE796
:103BC0000F20CDE90A054FF48060CDE90C400221B9
:103BD0000AA80E94FDF784FE002801D072B6FEE715
:103BE0000FB030BD70470000F0B50268164B174C9F
:103BF000174D4FF08047984205D0B84203D0A042FD
:103C000001D0A84203D122F070064A68324398429C
:103C100005D0B84203D0A04201D0A84203D122F47B
:103C20004074CA6822434C6922F080022243026039
:103C30008A68C2620A688262984201D10969016396
:103C400001214161F0BD0000002C01400004004052
:103C50000008004010B501F01F030121046A9940DB
:103C60008C430462016A9A401143016210BD000056
:103C700030B5026A22F001020262026A4368846976
:103C800024F073050C682C4322F002058A682A434D
:103C90000A4DA8420BD122F00805CA6823F44073EC
:103CA0002A434D6922F004021D438B692B43436074
:103CB000846149684163026230BD0000002C01400C
:103CC00030B5026A22F010020262026A4368846917
:103CD0000D6824F4E64444EA05248D6822F02002AD
:103CE00042EA05120B4DA8420ED1CD6822F08002A7
:103CF00042EA05124D6923F4406343EA85038D6966
:103D000022F0400243EA850343608461496881638D
:103D1000026230BD002C014030B5026A22F480728C
:103D20000262036A4268C46923F4007324F07305D5
:103D30000C682C438D6843EA05230C4DA8420ED134
:103D4000CD6823F4006343EA05234D6922F4405211
:103D500042EA05128D6923F4806342EA051242604B
:103D6000C4614968C163036230BD0000002C01409A
:103D700030B5026A22F480520262046A4268C36962
:103D80000D6823F4E64343EA05238D6824F40054C8
:103D900044EA0534064DA84204D14D6922F480421C
:103DA00042EA85124260C36149680164046230BD21
:103DB000002C014070B5044600680169E26821F4F6
:103DC0004051114301612169A068084361690843BA
:103DD0002168CA6841F20C639A430243CA602068B2
:103DE0004169A26921F44071114341611E49206873
:103DF000884202D1FDF71AFE01E0FDF707FE00EB55
:103E0000C00101EB0012606864218000B2FBF0F396
:103E1000B3FBF1F36FF018067343B2FBF0F5B2FB9E
:103E2000F0F605EB8305322303EB0515B5FBF1F541
:103E3000B6FBF1F605F0F00505EB0615B2FBF0F662
:103E4000B2FBF0F0B0FBF1F06FF01802504306EB5C
:103E5000800003EB0010B0FBF1F0216800F00F00D0
:103E60002844886070BD0000003801400148FCF71C
:103E700053BE0000AC000020FEE74100080218BF5E
:103E800004200A0E18BF40F001004FF07F4232EAD2
:103E9000010108BF40F00200012808BF052070475B
:103EA0000907090E002804DB00F1E02080F8001467
:103EB000704700F00F0000F1E02080F8141D7047FB
:103EC000012101F0F6BC01F0EBB80021084601F039
:103ED0005BB96FF05E01080701F0EBBC2DE9F04122
:103EE00004464FF00E4000EB4400B0F1506F204606
:103EF00055D84FF0FC41B1EB440F1CD224F00040E8
:103F00004FF07E5101F09BFB4FF0FF3101F0D1FCEF
:103F1000054600F017FF14F0004F1DBF2F4F304E25
:103F200080F000402F4F08BF2F4E4FF0404101F06E
:103F300089FA044605E000273E46014601F082FA70
:103F400005462A49284601F07DFA294901F0A8F8DA
:103F5000294601F077FA274901F0A2F8294601F035
:103F600071FA254901F09CF8294601F06BFA2349C2
:103F700001F096F880462946204601F063FA414652
:103F800001F060FA05463146204601F089F82946DD
:103F900001F086F83946BDE8F04101F081B84FF0F4
:103FA000E441B1EB440F08D9FFF767FF042808BFCD
:103FB000FFF78FFF2046BDE8F0814FF07F41B1EB66
:103FC000440F03D2BDE8F041FFF77ABF0120FCF7B0
:103FD0002AF9BDE8F041FFF778BF00000000C9BF33
:103FE00022AAFDB90000C93F22AAFD3924FE1C3DCA
:103FF000C78AD83C1E67383D1B93993DAFAA2A3E1D
:104000002DE9F0474FF0684202EB40030C460546AD
:10401000B3F1654F3CBF02EB4102B2F1654F80F056
:10402000CD8000BFC0F3C752C1F3C753D21A1B2AB9
:1040300006DD10F0004F14BF87488848BDE8F087C0
:1040400012F11A0F2FDA11F0004F06D010F0004FC6
:104050000CBF83488348BDE8F0872146284601F01D
:1040600093F80646FFF709FF042808BFFFF731FF62
:104070002846FFF702FF05462046FFF7FEFE0446EE
:104080003046FFF7FAFE042D18BF052D08D1042C89
:1040900018BF052C04D1002804BF0220FCF7C3F888
:1040A0003046BDE8F0874200B2EB410F25D910F051
:1040B000004F19BF6C4F6D4E6D4F6E4E224685F00E
:1040C000004415460A4680F0004110460A1A520084
:1040D000B2F1807F3ED248406749DFF8A0A110F0DE
:1040E000004F18D04FF03F48384601F03BFB0746E1
:1040F0005146304601F036FB17E011F0004F04BF87
:1041000000263746E2D010F0004F19BF5C4F5D4EDD
:104110005D4F5E4EDAE74FF07C58384600F0C0FF46
:1041200007465146304600F0BBFF0646414628464A
:1041300001F088F9214600F0B3FF8246214640464F
:1041400001F080F9294601F07AFA514601F01CF895
:10415000044604E02146284601F016F804460146CC
:1041600001F070F980464A4901F06CF9494900F0C4
:1041700097FF414601F066F9474900F091FF41463B
:1041800001F060F9454900F08BFF414601F05AF912
:10419000434900F085FF05464146204601F052F9AB
:1041A000294601F04FF9314600F07AFF214600F030
:1041B00077FF3946BDE8F04700F072BF4FF07F420D
:1041C000B2EB400F28BFB2EB410F03D2BDE8F0477E
:1041D000FFF779BE40EA01035B0008BF44F0FF41EE
:1041E0000AD0B2EB400F08BFB2EB410F06D125F069
:1041F000804024F0804105460C4613E7B2EB400FA7
:1042000012BF5FEA410345F0FF4004F000413FF474
:1042100009AFB2EB410F12BF5FEA400205F0004068
:1042200044F0FF413FF4FEAE4A0092EA40033FF5FE
:10423000F9AE002AACBF4FF09F464FF03E563146D4
:1042400001F000F905463146204601F0FBF804462E
:1042500028462146E6E60000DB0FC9BFDB0FC93F59
:10426000DB0F4940DB0F49C00000C9BF22AAFDB9DE
:104270000000C93F22AAFD390060ED3EC30ACE37D7
:10428000000049C022AA7DBA0000494022AA7D3A16
:104290002DAD65BD8FB8D53D0FB511BE61C84C3E83
:1042A000A8AAAABEF8B500208DF800000446FCF7C5
:1042B00023F88020FCF7A4F95520FCF7A1F955203C
:1042C000FCF79EF98DF80000FCF70EF89620FCF73D
:1042D00078F8FCF711F88020FCF792F95520FCF7EC
:1042E0008FF95520FCF78CF98DF80000FBF7FCFFE7
:1042F0009620FCF766F8FBF7FFFFB6217E20FCF75F
:10430000A9F9FBF7F1FF5020FCF759F8FBF7F4FF90
:104310008020FCF775F95520FCF772F95520FCF761
:104320006FF98DF80000FBF7DFFF9620FCF749F8E6
:10433000FBF7E2FF8020FCF763F95520FCF760F9FA
:104340005520FCF75DF98DF80000FBF7CDFF9620B6
:10435000FCF737F89DF800001E2801D0FF20F8BDBB
:10436000194D00BFFBF7C8FF04EB44067719A85DA1
:104370007978FCF76FF9FBF7B7FF9620FCF721F887
:10438000FBF7BAFFA85D40F08000FCF739F9552033
:10439000FCF736F95520FCF733F98DF80000FBF7F0
:1043A000A3FF9620FCF70DF878789DF8001088425E
:1043B00004D004EB440028448078F8BD641CE4B2C7
:1043C000062CCFD30020F8BD78000020F0B587B0D0
:1043D0000020019002908DF800000546FBF78CFF4D
:1043E0008020FCF70DF95520FCF70AF95520FCF761
:1043F00007F98DF80000FBF777FF9620FBF7E1FF48
:10440000FBF77AFF8020FCF7FBF85520FCF7F8F863
:104410005520FCF7F5F88DF80000FBF765FF9620B6
:10442000FBF7CFFFFBF768FFB6217E20FCF712F900
:10443000FBF75AFF5020FBF7C2FFFBF75DFF802020
:10444000FCF7DEF85520FCF7DBF85520FCF7D8F830
:104450008DF80000FBF748FF9620FBF7B2FFFBF753
:104460004BFF8020FCF7CCF85520FCF7C9F855200D
:10447000FCF7C6F88DF80000FBF736FF9620FBF737
:10448000A0FF9DF800001E2802D0FF2007B0F0BD5D
:104490007D4C00BFFBF730FF05EB45063719A05DEB
:1044A0007978FCF7D7F8FBF71FFF9620FBF789FF19
:1044B000FBF722FFA05D40F08000FCF7A1F855203B
:1044C000FCF79EF85520FCF79BF88DF80000FBF7F1
:1044D0000BFF9620FBF775FF78789DF80010884257
:1044E00004D005EB450020448078CFE75020FBF74F
:1044F00066FF6D1CEDB2042DCCD30025FBF7FCFE4E
:1045000005EB45073E19717B307BFCF7A3F8FBF701
:10451000EBFE9620FBF755FFFBF7EEFE307B40F0FD
:104520008000FCF76DF85520FCF76AF85520FCF781
:1045300067F88DF80000FBF7D7FE9620FBF741FFE8
:10454000707B9DF80010884204D005EB45002044A4
:10455000807B9BE75020FBF732FFFBF7CDFE9220DC
:10456000FCF74EF8062201A91220FCF72BF8FBF706
:10457000BBFE9DF805009DF804106D1C41EA00206B
:1045800003A9EDB221F817009DF807009DF8062059
:1045900001EB470142EA002048809DF809009DF8A0
:1045A0000820022D42EA00208880A7D3FBF7A4FE52
:1045B00000216D20FCF74EF8FBF796FE9620FBF7E6
:1045C00000FFFBF799FEED20FCF71AF85520FCF7E9
:1045D00017F85520FCF714F88DF80000FBF784FE5F
:1045E0009620FBF7EEFE9DF8000008B104204DE791
:1045F000FBF782FEB6217E20FCF72CF8FBF774FE59
:104600005020FBF7DCFEBDF90C00BDF91210411A79
:1046100040F2555081420EDBBDF90E10BDF9142059
:10462000891A814207DBBDF91000BDF91610401A46
:10463000B0F52A7F01DA802028E7FBF75DFE8020B5
:10464000FBF7DEFF5520FBF7DBFF5520FBF7D8FF1C
:104650008DF80000FBF748FE9620FBF7B2FEFBF753
:104660004BFE8020FBF7CCFF5520FBF7C9FF552000
:10467000FBF7C6FF8DF80000FBF736FE9620FBF730
:10468000A0FE002002E7000054590008F8B50024FD
:104690008DF80040FBF742FE69460020FBF7A4FFBF
:1046A000FBF734FE9620FBF78CFEFBF737FE6946DE
:1046B0000020FBF799FFFBF729FE9620FBF781FE10
:1046C000FBF72CFEB6211420FBF7C4FFFBF71EFE00
:1046D0005020FBF774FEFBF721FE69460020FBF734
:1046E00083FFFBF713FE9620FBF76BFEFBF716FE2E
:1046F00069460020FBF778FFFBF708FE9620FBF7E2
:1047000060FE9DF800000F2801D0FF20F8BD154D78
:10471000FBF704FE04EB44067719A85D7978FBF7F4
:1047200099FFFBF7F3FD9620FBF74BFEFBF7F6FD39
:10473000A85D6946FBF758FFFBF7E8FD9620FBF7FD
:1047400040FE78789DF80010884204D004EB4400C5
:1047500028448078F8BD641CE4B2062CD8D300202D
:10476000F8BD00008A00002038B500208DF8000058
:104770000446FBF7D3FD69460020FBF735FFFBF746
:10478000C5FD9620FBF71DFEFBF7C8FD694600201E
:10479000FBF72AFFFBF7BAFD9620FBF712FEFBF7AB
:1047A000BDFDB6211420FBF755FFFBF7AFFD5020F0
:1047B000FBF705FEFBF7B2FD69460020FBF714FF8F
:1047C000FBF7A4FD9620FBF7FCFDFBF7A7FD694670
:1047D0000020FBF709FFFBF799FD9620FBF7F1FDA1
:1047E000FBF79CFD01213C20FBF734FFFBF78EFD1E
:1047F0005020FBF7E4FD00BFFBF790FD69463C202D
:10480000FBF7F2FEFBF782FD9620FBF7DAFD641C56
:104810009DF80000E4B2800701D40A2CECD30A2CE6
:1048200003D09DF80000400701D5402038BD00208E
:1048300038BD00002DE9FF5F47688A46044693466D
:104840003946384600F0FEFD2668054631463046BA
:1048500000F0F8FD294600F023FC012101F029F8C1
:104860004FF07E59494600F07DFF05463846A16865
:1048700000F0E8FD07463046E16800F0E3FD394608
:1048800000F00EFC012101F014F82946FFF7B8FBF7
:10489000DFF89480414600F0D5FDCAF80000A16819
:1048A000206800F0CFFD0546E168606800F0CAFDB1
:1048B000294600F057FF4FF0404100F0C3FDFFF7DD
:1048C0000DFB414600F0BEFDCBF80000E76839461D
:1048D000384600F0B7FD266805463146304600F000
:1048E000B1FD294600F0DCFB012100F0E2FF494662
:1048F00000F038FF05463946A06800F0A3FD0746E2
:104900003046616800F09EFD394600F0C9FB012188
:1049100000F0CFFF2946FFF773FB414600F092FD00
:1049200003990860BDE8FF9FE12E654210B572B69D
:1049300038494878394AC4073748D36C926C1FD03D
:104940001C682468E4071BD114682468E40717D1A5
:104950008C78A40714D4CC78A40711D44A7822F018
:1049600001024A704A7842F002024A700022102185
:10497000FCF75EFC274908222431A1F1080020E061
:104980008C78E40720D01C682468E4071CD11468E4
:104990002468E40718D14C78A40715D4CC78A40770
:1049A00012D48A7822F001028A708A7842F00202D8
:1049B0008A7000220421FCF73BFC164809221849A2
:1049C0003430FEF7B5FE22E0CC78E4071FD01B6838
:1049D0001B68DB071BD112681268D20717D14A780F
:1049E000920714D48A78920711D4CA7822F001026F
:1049F000CA70CA7842F00202CA7000220421FCF791
:104A000017FC044904221831A1F11100D9E762B65C
:104A100010BD0000100000200008014040010020EF
:104A2000C802002010B504464FF0FF3100F041FFEE
:104A30000849A1EB6404214600F004FD214600F082
:104A400001FD4FF07F5100F0FAFD2146BDE8104016
:104A500000F0F8BCDF59375F704700000EB50A233D
:104A60008DE80E00024601231C210248FCF7B0FC31
:104A70000EBD0000EC0000201FB500218DF80C10C9
:104A80000A23012203A98DE80E00134602461C21C9
:104A90000348FCF79DFC9DF80C0004B010BD00001D
:104AA000EC00002003B583B00A23012204A98DE89D
:104AB0000E00134602461C210248FCF7B1FD05B06A
:104AC00000BD0000EC000020012251030148FCF76A
:104AD000AFBB0000000C014000224FF40051014820
:104AE000FCF7A6BB000C01407047FCF765BA70B537
:104AF0004FF0E02300215C6900EBC0009A69C5001B
:104B000098699042FCD002D2A2EB000202E0A4EB32
:104B10000006324411440246A942F1D370BD0000A0
:104B20002DE9F0410024FFF797FFFFF7DDFFFFF7C6
:104B3000D3FF3220FFF7D9FFFFF7C6FF3220FFF780
:104B4000D4FF0020FFF798FF102802D04020BDE8D6
:104B5000F081104D04EB44067719A85D7978FFF7D2
:104B6000A1FF9620FFF7C3FFA85DFFF785FF06466C
:104B70009620FFF7BCFF7878B04204D004EB4400E5
:104B800028448078E3E7641CE4B2042CE2D30020DC
:104B9000DDE70000665900087CB504460622694638
:104BA0000320FFF75BFFBDF9000000F0EBFB134DA6
:104BB000296800F0D7FD124900F044FC6060BDF99F
:104BC000020000F0DFFB696800F0CCFD0D4E3146BD
:104BD00000F038FC0C4900F035FC2060BDF9040001
:104BE00000F0D0FBA96800F0BDFD314600F02AFCC2
:104BF000064900F027FCA0607CBD00009C0000205E
:104C00009A9999BE9A99993ED7A370BF1F852B3F59
:104C1000FCF7D6FDFEF7B7FFFDF766FFFDF746FF91
:104C2000FEF702F8FDF7E0FFFEF722F8FEF758F86E
:104C3000FDF7FAFE0448FBF7DFFDFDF733FE00BF8A
:104C4000FDF778FEFCE7000000A24A042DE9FC47CE
:104C5000264F894606460068394600F021FADFF8FB
:104C60009080414600F090FA0E2100F022FE00F004
:104C700069FB05463946706800F012FA414600F0BB
:104C800083FA0E2100F015FE00F05CFB0446394665
:104C9000B06800F005FA414600F076FA0E2100F007
:104CA00008FE00F04FFB06464FF07C51484600F0EE
:104CB000F7F900F02BFB014601208DF80000280ACF
:104CC0008DF801008DF80250200A8DF803008DF850
:104CD0000440300A8DF805008DF806608DF8071045
:104CE00069460448FBF7C0FCBDE8FC870000B443FC
:104CF00000003444AC0000202DE9F04106460F4688
:104D000000F0BCF8041E0D4618BF0120284320F017
:104D10000040C0F17F6000F1E040C00F0ED0301CB9
:104D200018BF0120384320F00040C0F17F6000F13F
:104D3000E040C00F04BF0120FBF775FA204629466A
:104D4000BDE8F08170B5054600F084FC044620F013
:104D50000040C0F1FF40C00F08D025F00040C0F176
:104D6000FF40C00F04BF0120FBF75DFA204670BD75
:104D700021F00042A2F16052B2F5801F01F0004321
:104D800028BFD2F17F6C0BD95FEA001C43EAC20254
:104D900042EB507018BF704728BF20F001007047E9
:104DA000B2F5801FBCBF184670474FEA410C1CF596
:104DB000001F02D2084600F00CBC70B500F009F8E4
:104DC00000000089FFF7F6BF4FF00040A0F580001B
:104DD00070470EF1020E2EF0030E5EF8046B3642A1
:104DE00005D4012A43EB030515F5001F12D801284D
:104DF00041EB010C1CF5001F0CD80ED14FEAD17C01
:104E000015F5001F0CEB4C0C0CF1020C08BF4CEB21
:104E1000D37C04E04FF0080C01E04FEAD37C0CEBAC
:104E20004C0526FA05F606F00706B6F1040C06D284
:104E30000EEB860CBDE870404CF0010C6047DFE8DB
:104E40000CF0090B02024FF000414FF00000A1F5F9
:104E5000002170BD19461046012851EB010418BF0E
:104E6000D4F5001484BF002001F0004170BD080893
:104E7000A0F500114FEA3101704700002DE9F04123
:104E800001F5801CBCF5001FC0F2C3804FEA115C25
:104E900021EA0C510CF1FD0C41F480115FEA5C0C2D
:104EA0000CF5C07C01D3400049413DA4890241EA90
:104EB000905187028E0E0A0CA45D04FB04F602FBDF
:104EC00006F6C6F14046A4FB0662F60D46EA422607
:104ED00006FB06F4A4FB01235242C3F1404338BF52
:104EE0005B1EA6FB02420024E6FB0324D20B42EA2F
:104EF0004446A6FB0623A1FB02E2A3FB07E4A41899
:104F00004FF0000252F10002E3FB01426442C2F1A1
:104F1000404E38BFAEF1010EA6FB04234FF0000255
:104F2000E6FB0E32A2FB03464FF00004B61954F123
:104F30000004E2FB0264A1FB06E6A4FB07E816EB13
:104F400008064FF0000858F10008E4FB01687642BB
:104F5000C8F1405838BFA8F10108A2FB06E4A3FB42
:104F600008E52D194FF0000454F10004E2FB085449
:104F7000A1FB05E6A7FB04E818EB06084FF00006C6
:104F800056F10006E1FB048618F1200556F10006F3
:104F9000A809A8F11B08B10908F03F08B8F10A0FE9
:104FA00040EA86601CD901EB0C51BDE8F08100BFDE
:104FB000FCF5EEE8E2DDD8D3CFCBC7C3C0BDB9B6B0
:104FC000B4B1AEACA9A7A5A3A19F9D9B9A989695B5
:104FD0009392908F8D8C8B8988878685848382813C
:104FE000A0FB006800FB01F208EB4208B8EB872841
:104FF00007D5341858EB0104D5D5401C51F10001F8
:10500000D1E7341A78EB0104CDD4401E71F10001D0
:10501000C9E75FEA4C0C5FEA9C5C0DD105D34FF009
:10502000000001F00041BDE8F081BDE8F04170B53D
:10503000FFF7CFFE6DDBFFBEBDE8F0414FF0000093
:10504000004970470000F87F43004FEAD30C4FEA55
:105050003C0C43401FBF40070CF1605113F0FE4F62
:1050600070471CF0006F03D100200CF00041704726
:105070000CF0004343EA507010B540EACC0000F059
:1050800062FA00BF000000924FEA0001FFF7EFBE96
:105090004FF000414FF00000A1F5002170470000E3
:1050A00090EA010F48BF81F0004100F16283421A8B
:1050B0003CBF801A89184FEAD0524FF07F4C1CEA4F
:1050C000410FA2EBD15318BF9CEA026F00F03B8066
:1050D0004FF0004C4CEA00204CEA012121FA03FC7D
:1050E00010EB0C0C1ED202F1FF325FEA1C2040EBE9
:1050F000C25038BF70471CF07F0F4FEA400C18BFFA
:10510000BCF17F4F38BF7047C3F12003994008BFFF
:1051100020F00100BCF17F4F38BF7047A0F1C040C4
:1051200000F057BA4FEA3C00000A40EBC25028BFDB
:105130001CF0FF0F4FEA400CE6D018BFBCF17F4FC8
:1051400038BF7047EAE79CEA026F05D010EA5C0FAF
:1051500008BF00F00040704710B500F0F4F900BF40
:1051600064FBBE3E014800F072BB00BF0000C07F80
:10517000401058BFC0F14040491058BFC1F14041F4
:105180008142EFF3008070474FF47F0C1CEAD0128D
:105190001EBF1CEAD11392EA0C0F93EA0C0F00F029
:1051A000858090EA010F48BF42F4807240F4000C01
:1051B00041F400002CF07F4120F07F4000B5814297
:1051C000A2EB03020FF2081CACEB504EC0F1000042
:1051D0009EF800E04FEA4E0E00FB0EFC38BF49007F
:1051E0004FEA2C1C02F5FA020CFB0EF34FEACE1E1E
:1051F0004FEA112C4FEAC1210EEB635E42EB2242D3
:105200000EFB0CFC4FEA1C5300FB03114FEA112C60
:105210004FEA01310EFB0CFC4FEADC4C00FB0C1199
:10522000C14228BF09184CEB03335DF804EB10EBC7
:10523000410143EBC250B2F57C0F38BF704729D50E
:1052400012F0F00F1CBF00F1C04000F000407047AA
:10525000008182838485868788898B8C8D8E8F914F
:105260009293959697999A9C9D9FA0A2A3A5A7A873
:10527000AAACAEB0B2B3B5B7B9BCBEC0C2C5C7C99F
:10528000CCCED1D4D7D9DCDFE2E6E9ECF0F3F7FA03
:10529000FE0000004FEA400C0CF1807CBCF17E4F18
:1052A00028BF7047B0F1C04000F093B990EA010FF9
:1052B0000CEAD11348BF42F48072624538BF63459F
:1052C00007D213F47F0F16D080EA010000F00040EF
:1052D000704710B500F037F9097EFC3E00F005B8C4
:1052E00080EA010000F00040704780EA010000F011
:1052F000004000F06EB912F47F0F04BF02487047FF
:1053000080EA010000F065B90000C07F41000B0E8B
:10531000D3F19E0208D950F400034FEA032323FA85
:1053200002F048BF4042704710B500F00CF900BFD2
:1053300049922480002070476FF0004282EA2000EA
:1053400070470000C10DD1F19E0206DB4FEA002339
:1053500043F0004323FA02F07047004207D54FEABA
:105360004001B1F1FE4F02D24FF00000704710B57E
:1053700000F0E9F849922480002070476FEA20008D
:105380007047000010F0004148BF4042B0FA80F37F
:1053900010FA03F2C3F19D030BD051EAC35101EBA4
:1053A0001220530638BF704700F1010008BF20F0FB
:1053B00001007047B0FA80F310FA03F2C3F19D03C5
:1053C0000AD0D90501EB1220530638BF704700F10F
:1053D000010008BF20F001007047000050EA010CF6
:1053E00000F113801CF5000F58BFBCF5000F01D46D
:1053F0008842704707D710F5000F58BF11F5000F0E
:1054000015D488427047894270471CF5000F04D5B7
:10541000BCF5000FF7D5814270474FF0807C1CEB44
:10542000400F38BF1CEB410F01D28142704710B5CD
:1054300000F089F8922449004FF000504FF080515D
:10544000FFF796BE4FF47F0C1CEAD0121EBF1CEA79
:10545000D11392EA0C0F93EA0C0F00F0478090EA08
:10546000010F48BF42F480724FF0004C4CEA00201C
:105470004CEA012102EB0302A0FB0113A2F500029A
:10548000002918BF43F001035B0028BF4FEA330334
:1054900042EB22425FEA132C4CEBC2502EBFBCEB16
:1054A000436FB2F57C0F70474FEA036CBCF1004FBD
:1054B00008BF20F00100B2F57C0F38BF70470BD554
:1054C00082F0FF0212F5803FC8BF704700F1C04074
:1054D000D8BF00F00040704700F5000C5FEA4C0CAC
:1054E00048BF7047B0F1C04000F073B890EA010FB8
:1054F0000CEAD11348BF42F48072624538BF63455D
:1055000004D280EA010000F00040704710B500F0BE
:105510001AF800BF8900013E00F007B800F009B892
:105520005FEA410C5FEA1C6C08D080EA010000F0E1
:1055300050B85FEA400C5FEA1C6CF6D14FF00040B7
:10554000A0F5800070470EF1020E2EF0030E5EF8FB
:10555000044B244204D44FEA4102B2F17F4F11D8E8
:105560004FEA4003B3F17F4F0CD80ED14FEAD07C05
:10557000B2F17F4F0CEB4C0C0CF1020C08BF4CEB62
:10558000D17C04E04FF0080C01E04FEAD17C0CEB39
:105590004C0324FA03F404F00704B4F1040C06D21B
:1055A0000EEB840CBDE810404CF0010C6047DFE8C6
:1055B0000CF0070802024FF00040A0F5800010BD7B
:1055C0000846420018BFD2F1807288BF00F0004048
:1055D00010BDFF2141EAD050C005704751EA000CD0
:1055E00000F113801CF5000F58BFBCF5000F01D46B
:1055F0008142704707D711F5000F58BF10F5000F13
:1056000015D481427047894270471CF5000F04D5BC
:10561000BCF5000FF7D5884270474FF0807C1CEB3B
:10562000410F38BF1CEB400F01D28842704780EA1F
:10563000010081EA000180EA0100FFF7F8BE80F076
:10564000004090EA010F7FF532AD81F0004100F09B
:1056500090B800004FEAD051002988BFD1F1FF0275
:1056600040F2758001F17D014FEA002070B54908D4
:1056700040F0004038BF40080EA2430E040CD25C3C
:1056800002FB02F304FB03F3C3F14043A3FB025408
:10569000ED0D45EA442202FB02F3A0FB03546D42E8
:1056A000C4F1404438BF641EA2FB05350023E2FB71
:1056B0000453EA0B42EA4342A0FB023212F14004D7
:1056C000A2F12103E40903F07F031F2B32D904EB7D
:1056D000C15070BDFEFAF7F3F0ECE9E6E4E1DEDC80
:1056E000D9D7D4D2D0CECCCAC8C6C4C2C1BFBDBC23
:1056F000BAB9B7B6B4B3B2B0AFAEACABAAA9A8A7AB
:10570000A6A4A3A2A1A09F9E9E9D9C9B9A999897B8
:10571000979695949393929190908F8E8E8D8C8C7A
:105720008B8A8A8989888787868685848483838211
:105730008281818004FB04F6B6EB004603D5E64285
:1057400048BF641CC3E7A64258BF641CBFE711F002
:10575000FF0F02D100F00040704710B5FFF7F3FED5
:105760007FDBFFBE90EA010F48BF81F000413FF5AB
:105770009EAC421A04D882F00042A0EB0200114411
:105780004FEAD0524FF07F4C1CEA410FA2EBD153AD
:1057900018BF9CEA026F4AD04FF0004C4CEA002040
:1057A0004CEA012121FA03FCB0EB0C0C0FD412F0EF
:1057B000FE0F36D05FEA4C001DD5001240EBC25000
:1057C00038BF70471CF03F0F18BF70470BE0A2F1C5
:1057D00001025FEA1C2040EBC25038BF70471CF04A
:1057E0007F0F18BF7047C3F12003994014BF401EBC
:1057F00020F00100704780084FEA122308BF70476D
:10580000B0FA80FCA2EB0C02CCF1280C60FA0CF090
:1058100093EA122F04BF00EBC25070474FEAC370E7
:105820007047130A5FEADC1008BF7047F6E79CEA8E
:10583000026F04D010EA5C0F08BF0020704710B55B
:10584000FFF781FE40DFF63E81F0004070470CF02C
:105850000F03092B08BF082000F051800A2B0BD042
:10586000082B18BF704708BF1CF0400F0AD04FF03C
:1058700000004FF0000170471CF0400F18BF4FF0C0
:10588000004070471CF0100F08D020F0704300F06B
:105890007F4242EAD3014FEA4370704700F0604014
:1058A00021F07F4242EA000201F07F4040EA72703C
:1058B00070474FF0FF0212EAD0521CBF92F0FF0374
:1058C0008B42C2BFD14200EBC1507047002A0AD0C0
:1058D000002B0BD0002900F00040A4BF40F0FE4098
:1058E00040F40000704700F00040704743024FF062
:1058F0000B0C18BF4CF0806C7FF434AC70471CF478
:10590000801F11D01CF4E02F03D06FEACC31490086
:1059100070474FF04050EFF3008222F0704242EAAD
:10592000000282F3008870474FF0000070470000CB
:10593000000000000000010203040607080900003F
:10594000000001020304000000001643211F743C04
:105950000000000040AC037D04014103057C00020F
:105960006D0D026D09020B080141090242C0030AD4
:105970000B0400009459000800000020AC00000057
:1059800028010008405A0008AC000020240900004B
:1059900044010008010000001000000000000000A9
:1059A0000024F40000000000000000A2FFFFFF0040
:1059B00000000000000000000000000000000000E7
:1059C00082FFFFFFFFFFFFFF00000000000000005C
:1059D000000000000000000092FFFFFFFFFFFFFF3C
:1059E000FF0000000000A042000020410000000075
:1059F0000000000000000000E7416B3A58A08B3A1D
:105A00000000000000000300030003007D04017C8F
:105A1000000240AB034100055308065804070F007D
:105A20000810820911000A15800B16000C18010DD0
:105A30009A196B4366666A423333A9C200000000BC
:04000005080000ED02
:00000001FF
